:100000006F00E02C000000004A0100004E010000DB
:1000100000000000000000000000000000000000E0
:1000200000000000000000000000000000000000D0
:100030009C020000000000009E0200000000000082
:10004000A0020000A2020000A4020000A60200001C
:10005000A8020000AA020000AC020000AE020000EC
:10006000B0020000B2020000B4020000B6020000BC
:10007000B8020000BA020000BC020000BE0200008C
:10008000C0020000C2020000C4020000C60200005C
:10009000C8020000CA020000CC02000000000000FC
:1000A000511126C022C206C4828282441244A24058
:1000B000310182802A86014593F6150091C232955E
:1000C00085810606F5F9828000000000634E050276
:1000D00063C305042E86AA857D5515C285466378BF
:1000E000B6006356C00006068606E36CB6FE014500
:1000F00063E4C500918D558D85820582F5FA828075
:100100008682C93F2E8582823305A04063D70500D1
:10011000B305B040C1B7B305B0408682653F330533
:10012000A0408282868263C70500634905005D376F
:100130002E858282B305B040E35B05FE3305A04007
:10014000513F3305B040828200007300203001A08F
:10015000EFF21FF571651305052011243D233715B6
:1001600000001305C58EEF00E073ED233DBFEFF2F5
:100170003FF381460146930500040145C123DD2B71
:100180001305803ECD2281460146814501457D23F0
:10019000D5231305803EC12A09BFB71702409843F3
:1001A000B706FFFC61111367170098C3D843216697
:1001B000758FD8C39843B706F7FEFD16758F98C3A1
:1001C0009843B706FCFFFD16758F98C3D843C176D8
:1001D000FD16758FD8C337079F0098C702C002C2AB
:1001E000984FB70601401367170098CFD842518F38
:1001F000D8C29843C16637060200558F98C3B71618
:10020000024009679C42F18F3EC2824785073EC08B
:10021000924781E78247E397E7FEB71702409C4386
:100220001397E7006358070685473EC21247854784
:100230006310F706B72702409843C176FD16719BFD
:1002400098C398431367170098C3B7170240D84361
:10025000D8C3D843758FD8C3D843C166558FD8C388
:100260009843B7060001558F98C3984393166700CB
:10027000E3DD06FED843B7160240719BD8C3D843CE
:1002800013672700D8C32147DC42B18BE39EE7FE0A
:100290002101828002C259BF01A001A001A001A0DA
:1002A00001A001A001A001A001A001A001A001A046
:1002B00001A001A001A001A001A001A001A001A036
:1002C00001A001A001A001A001A001A001A097012F
:1002D00000209381A155138181FD170500001305AE
:1002E000A561970500209385E5D117060020130628
:1002F000E6D363FAC5008322050023A0550011054B
:100300009105E3EAC5FE17050020130525D2938564
:10031000C1836377B500232005001105E36DB5FEA9
:1003200093020008739002308D42739042809702CE
:100330000000938222CD93E2320073905230EFF0AE
:10034000DFE597020000938202017390123473007C
:100350002030EFF2FFD48121E53B113DFDBFEFF2EC
:100360003FD44D2199B3EFF2BFD385213DBBEFF2CE
:100370003FD351119307050602C002C493F7F70F4C
:100380001307F003636CF7049377F5000547B31781
:10039000F7007C80C14789C991476387E500894799
:1003A0006390F504930780043EC48D473EC21375E5
:1003B000050F9307000C630BF5029307000D630E06
:1003C000F5029307000A631BF500854511455D2A78
:1003D000371501408A851305058015283101F1B1D3
:1003E0008D47E394F5FC930780027DBF8545414529
:1003F000512A8A8537150140CDB78545130500027E
:100400005122371501408A8513050540F9B79C45EF
:10041000611122C226C013F7070113F3F70001C7C9
:10042000D8413363E30092211377F60F29C7832362
:100430000500014713048002930480048546B395A8
:10044000E600B376B6006392D50293122700BD464C
:10045000B396560093C6F6FFB3F37600B31253007B
:10046000B3E37200639787064CC90507A146E317FB
:10047000D7FC232075001307F00F6378C70483238C
:100480004500A14613048002930480040547B3127B
:10049000D700337756006394E202139726000117C2
:1004A000BD45B395E50093C5F5FFB3F3750033176C
:1004B000E300B363770063928702232A5500850621
:1004C0004147E395E6FC2322750012448244210152
:1004D0008280E39C97F80CC949BFE39297FE2328DA
:1004E0005500F1BF19C20CC982804CC98280EFF25D
:1004F0003FBB371702405C4391462A84B18B63852A
:10050000D700A146638AD706B7376E019387076085
:100510001CC0B7160240DC42918313F7F700B707FF
:10052000002093878701BA978C23DC42184093F50B
:10053000F50F93F707083355B70099E33A85593E0D
:1005400048C008C448C4B7170240DC43AD83FD8BE4
:1005500013D737008A07F18BD98F93F637010D47F0
:100560006373D700D1173707002013074700BA97E6
:100570008C238D3608C815BE5C43B777DC029387A1
:1005800007C079B799C5371702401C4F5D8D08CF5A
:100590008280B7170240984F1345F5FF798D88CFB9
:1005A0008280EFF2FFAF1629F577FD17F58FF62160
:1005B000DA252111D58F1EA95625FD779387379F00
:1005C000F58FD6212A842EC0D58F9625D58FB625B6
:1005D000D58F5EA55E29C207C18393F7F7CF5D8FE4
:1005E0005AA948002937B7470140938707808245B9
:1005F000631DF404C2475A24139517003E95420721
:100600000E0541873E958C41635307048605D93416
:10061000930540062AC07D3C82479314450093050C
:1006200040063E85F13C5E24C207C18763D30702C2
:100630000E059305400613052503693C1D89C98CE9
:10064000C204C18006A461018DB4B2476DB78A05AA
:100650007DBF12059305400613052503A53C3D8982
:10066000F9BF91C55E250967D98F5EA582805A259D
:10067000F977FD17F98FD5BF93F5F51F4EA182804D
:100680000A216D8D3335A0008280EFF27FA1814574
:100690001305300DE93921472398E182B71701404E
:1006A0009387074023AAF18209B4EFF27F9F138456
:1006B0004183938401831C408E20054605C13E85FD
:1006C00015358E2008400546313D05468E200840F0
:1006D000113D8E20084001463135C1BA3E8519359D
:1006E0008E2008400146FD3B0146CDB7EFF25F9BEF
:1006F00061112A84B2849D4733D5F54005893EC2F5
:100700002EC0653792477D578245FD17E396E7FE79
:100710009D473355F44005893EC0413F82477D5790
:10072000FD17E398E7FE1D4433D584400589B53FA6
:100730007D14FD57E31AF4FE210185BA93171500C5
:100740003E95B7070020938787023E950CA110B114
:1007500034A18280B707002093878702138707039D
:1007600023800700A3800700238107008D07E399FA
:10077000E7FE8280EFF2DF92370400201304840248
:100780009304040330200C3008200D048537E31B4C
:1007900094FE6FF09F91EFF2BF90B707002003A582
:1007A0000700B7157A0093850520EFF0BF92137507
:1007B000F50F238DA18293175500898F8A073E95E7
:1007C0000E05239CA1826FF05F8EEFF27F8D37F4D0
:1007D00000E05C40AA85F99B5CC003D58183EFF003
:1007E0007F8D08C8232404001C4093E717001CC019
:1007F000B7F700E0D843058B75DF9843799B98C322
:100800006FF0BF8AEFF2DF892A84116511118545E7
:1008100013050502853B930700027C8037150140D4
:100820008D473EC28A85E147130505403EC4C53663
:1008300022C637440140B70708006C001305048046
:100840003ECA02C8231C0100A93B8545130504804C
:10085000093D71016FF07F85EFF29F847111AE84C5
:100860000144635DC402B7470140138707803A859E
:100870009305000432C02935B7470140138707802C
:10088000024675D5338784008305070013850780EA
:100890000504C205C181CD330246E1B7328511019D
:1008A0006FF0BF80411122C426C206C61C21AA8453
:1008B0000144DC8183073100050491EFA9479305CA
:1008C000310005460145DC81413F2285B24022448A
:1008D0009244410182800546930531000145AD3FB8
:1008E000B38784009C23DC81F1B70000535441524C
:0408F000540D0000A3
:1008F400006CDC020204060804080C10081018201E
:1009040010203040204060800102030405060708DF
:080914000102030405060708B7
:00000001FF
