:100000006F00002F000000004A0100004E010000B8
:1000100000000000000000000000000000000000E0
:1000200000000000000000000000000000000000D0
:10003000BE02000000000000C0020000000000003E
:10004000C2020000C4020000C6020000C802000094
:10005000CA020000CC020000CE020000D002000064
:10006000D2020000D4020000D6020000D802000034
:10007000DA020000DC020000DE020000E002000004
:10008000E2020000E4020000E6020000E8020000D4
:10009000EA020000EC020000EE0200000000000096
:1000A000511126C022C206C4828282441244A24058
:1000B000310182802A86014593F6150091C232955E
:1000C00085810606F5F9828000000000634E050276
:1000D00063C305042E86AA857D5515C285466378BF
:1000E000B6006356C00006068606E36CB6FE014500
:1000F00063E4C500918D558D85820582F5FA828075
:100100008682C93F2E8582823305A04063D70500D1
:10011000B305B040C1B7B305B0408682653F330533
:10012000A0408282868263C70500634905005D376F
:100130002E858282B305B040E35B05FE3305A04007
:10014000513F3305B040828200007300203001A08F
:10015000EFF21FF57165130505201D248945130570
:10016000700D3D241D2BEF00206D81B7EFF25FF382
:1001700061112AC08144014454001306F00F930515
:10018000F00F2685C523148390820C821375F40F1B
:1001900005046D2B4147E311E4FEEF00E0690245E1
:1001A0008504DD2213079016E397E4FC2101F5BDD9
:1001B000EFF21FEF13052003553FC5BDB7170240EF
:1001C0009843B706FFFC61111367170098C3D84323
:1001D0002166758FD8C39843B706F7FEFD16758F55
:1001E00098C39843B706FCFFFD16758F98C3D84394
:1001F000C176FD16758FD8C337079F0098C702C018
:1002000002C2984FB70601401367170098CFD84233
:10021000518FD8C29843C16637060200558F98C3E4
:10022000B716024009679C42F18F3EC2824785079C
:100230003EC0924781E78247E397E7FEB717024047
:100240009C431397E7006358070685473EC2124751
:1002500085476310F706B72702409843C176FD161D
:10026000719B98C398431367170098C3B717024050
:10027000D843D8C3D843758FD8C3D843C166558FE8
:10028000D8C39843B7060001558F98C39843931677
:100290006700E3DD06FED843B7160240719BD8C362
:1002A000D84313672700D8C32147DC42B18BE39EB4
:1002B000E7FE2101828002C259BF01A001A001A076
:1002C00001A001A001A001A001A001A001A001A026
:1002D00001A001A001A001A001A001A001A001A016
:1002E00001A001A001A001A001A001A001A001A006
:1002F0009701002093818153138181FD1715000020
:10030000130585F2970500209385C5CF17060020B9
:100310001306C6D163FAC5008322050023A0550049
:1003200011059105E3EAC5FE17050020130505D068
:100330009385C1836377B500232005001105E36D24
:10034000B5FE93020008739002308D427390428094
:1003500097020000938202CB93E2320073905230F6
:10036000EFF0DFE5970200009382020173901234F0
:1003700073002030EFF2DFD2CD21D93B153DFDBF18
:10038000EFF21FD2912315B3EFF29FD1092331BBB6
:10039000EFF21FD151119307050602C002C493F773
:1003A000F70F1307F003636CF7049377F500054725
:1003B000B317F7007C80C14789C991476387E5007F
:1003C00089476390F504930780043EC48D473EC27D
:1003D0001375050F9307000C630BF5029307000DCF
:1003E000630EF5029307000A631BF500854511456E
:1003F0005D2A371501408A851305058015283101CE
:100400006DB18D47E394F5FC930780027DBF854570
:100410004145512A8A8537150140CDB785451305D9
:1004200000025122371501408A8513050540F9B7AE
:100430009C45611122C226C013F7070113F3F70090
:1004400001C7D8413363E30092211377F60F29C720
:10045000832305000147130480029304800485462A
:10046000B395E600B376B6006392D50293122700E7
:10047000BD46B396560093C6F6FFB3F37600B312AB
:100480005300B3E37200639787064CC90507A14682
:10049000E317D7FC232075001307F00F6378C70418
:1004A00083234500A146130480029304800405477A
:1004B000B312D700337756006394E20213972600F5
:1004C0000117BD45B395E50093C5F5FFB3F375007E
:1004D0003317E300B363770063928702232A550042
:1004E00085064147E395E6FC2322750012448244C9
:1004F00021018280E39C97F80CC949BFE39297FEE3
:1005000023285500F1BF19C20CC982804CC98280D2
:10051000EFF21FB9371702405C4391462A84B18B32
:100520006385D700A146638AD706B7376E019387E4
:1005300007601CC0B7160240DC42918313F7F70036
:10054000B707002093878701BA978C23DC421840B5
:1005500093F5F50F93F707083355B70099E33A85FC
:10056000953E48C008C448C4B7170240DC43AD8379
:10057000FD8B13D737008A07F18BD98F93F637019C
:100580000D476373D700D1173707002013074700C3
:10059000BA978C23813608C809BE5C43B777DC0262
:1005A000938707C079B799C5371702401C4F5D8DF7
:1005B00008CF8280B7170240984F1345F5FF798D19
:1005C00088CF8280EFF2DFAD1629F577FD17F58F22
:1005D000F621DA252111D58F1EA95625FD7793879F
:1005E000379FF58FD6212A842EC0D58F9625D58F9B
:1005F000B625D58F5EA55E29C207C18393F7F7CFD5
:100600005D8F5AA948002937B74701409387078073
:100610008245631DF404C2475A24139517003E9582
:1006200042070E0541873E958C41635307048605BA
:100630005534930540062AC0713C82479314450007
:10064000930540063E856D3C5E24C207C18763D397
:1006500007020E059305400613052503A53C1D89D9
:10066000C98CC204C18006A4610181B4B2476DB7D0
:100670008A057DBF12059305400613052503993CA5
:100680003D89F9BF91C55E250967D98F5EA5828036
:100690005A25F977FD17F98FD5BFEFF27FA0814575
:1006A0001305300DF53121472398E182B71701403A
:1006B0009387074023AAF182CDBAEFF27F9E13847D
:1006C0004183938401831C408E20054605C13E85ED
:1006D0001D3D8E20084005463D3505468E200840CC
:1006E0001D358E2008400146393DC1B23E85213D71
:1006F0008E2008400146013D0146CDB7EFF25F9ADA
:1007000061112A84B2849D4733D5F54005893EC2E4
:100710002EC0653792477D578245FD17E396E7FE69
:100720009D473355F44005893EC0413F82477D5780
:10073000FD17E398E7FE1D4433D584400589B53F96
:100740007D14FD57E31AF4FE210185B293171500BD
:100750003E95B7070020938787023E950CA110B104
:1007600034A18280EFF2DF935111AE84930580169D
:1007700036C432C2713212462AC03285EF00007987
:10078000B717000083A5C7057929EF00C07213745D
:10079000F50F13054006A285058DEFF0BF91EF0020
:1007A000E07637170000832507068D2A292713775F
:1007B000F50F02459305C003B304E4403AC2EFF0DD
:1007C0003F94AA852685EFF0FF8E9305C003EFF0D6
:1007D0007F909374F50F02459305C003EFF09F8F50
:1007E00011461247A2466364A604056613068604F2
:1007F0000A05329510410286BA9480A284B2B8A24A
:1008000031016FF09F8AB304944084A280B2C5BFC7
:1008100098A280B2BA94A4A2E5B7B304944098A277
:1008200084B2A0A2F1BFBA9484A298B2DDBF80A224
:1008300098B2B3049440C5B7EFF29F863704002006
:10084000130484029304040330200C3008200D04A8
:100850007535E31B94FE6FF05F85EFF27F84B70779
:10086000002003A50700B7157A0093850520EFF057
:100870007F861375F50F238DA18293175500898FFD
:100880008A073E950E05239CA1826FF01F82EFF22E
:100890003F8137F400E05C40AA85F99B5CC003D53A
:1008A0008183EFF03F8108C8232404001C4093E7B4
:1008B00017001CC0B7F700E0D843058B75DF9843DD
:1008C000799B98C36FF06FFEEFF28FFD2A8411655C
:1008D0001111854513050502F931930700027C804B
:1008E000371501408D473EC28A85E1471305054013
:1008F0003EC43D3E22C637440140B70708006C00A5
:10090000130504803ECA02C8231C010065398545D1
:1009100013050480853B71016FF02FF91301C1FDB0
:100920009356750126CC131695009354F50106D005
:1009300022CE93F6F60F2582A682638B06109307CC
:10094000F00F638CF6100E06B70700045D8E9386D9
:1009500016F80144814393D775011393950093F7DB
:10096000F70F13539300FD81E5C31307F00F638660
:10097000E702938717F80E03370700049D8E336351
:10098000E30081475D8C170500001305E56D0A043F
:100990002A940040AD8C22950285938616F063144C
:1009A000030C89475D8C170500001305E56F0A04E9
:1009B0002A9403230400AD8C1A9502858144930583
:1009C000F00FB70740001395970082507244939739
:1009D00075012581FE045D8D458DE24413014102C0
:1009E00082809305F00F8147F9BF1A86AE82BE83DD
:1009F00089476384F3228D47E382F3FC8547638450
:100A0000F30C9385F60793F412006356B0189377AE
:100A1000760099C79377F60011456383A700110606
:100A20009317460063D80700B70700F8FD177D8EBF
:100A3000938506089307E00FE3C5B7FA931766009E
:100A4000A58393F5F50F41B763180304854799BF54
:100A500015E2114481468543FDBD01EA2144930618
:100A6000F00F8943CDBD8D4731BF31449306F00F60
:100A70008D43D5B532852EC432C026C2B92B02466D
:100A80009307B5FF9306A0F83316F600898E01444C
:100A900081439242A245C1B51A8536CA16C832C6EC
:100AA0001EC42EC21AC0152BD24602439307B5FFAF
:100AB000AA963313F3009386660781479245A243B3
:100AC0003246C242C1B593F4120081458147E5BD6B
:100AD000C16713175300FD17F98F3ACA3EC213546A
:100AE0000701637D660E3285A28536C632C4EFF0FB
:100AF0006FDE92452AC0EFF0EFDB2246B246AA87AE
:100B00003283FD160146A2851A8536C83EC632C418
:100B1000EFF00FDF2246B2474205518DC246637F98
:100B2000F500524782453A951386F5FF6362E50E5C
:100B30006370F50E1386E5FF32C03A95B307F540B2
:100B40003E85A28536C83EC6EFF0CFD892452AC46E
:100B5000EFF04FD6B2472AC2A2853E85EFF04FDABA
:100B6000124642052243C246637CC50052479307A2
:100B7000F3FF3A95636CE508637AC50879133A95F3
:100B800082473306C5403336C000C207B3E767006B
:100B90005D8EA682BDB505433303B34091C56D4557
:100BA00081458147E34165E29386E609B316D600A5
:100BB000B35766003336D000D18F93F6770099C6CD
:100BC00093F6F70011466383C60091071397570009
:100BD000634207049A07A5838145F5B313531600B2
:100BE0001A85A28536C832C61AC4EFF0AFCE924538
:100BF0002AC0EFF02FCC3246AA87C2467E06418239
:100C0000224311B7AE82BE830146DDB33E838DBF62
:100C100032C02DB7854581477DB393F4120093050B
:100C2000F00F81474DB3011122CC1354750126CA30
:100C300006CE931495001374F40FA5809356F50116
:100C40004DCC9307F00F630CF40CB70700048E042F
:100C5000DD8C130414F88147014613D575011397F1
:100C600095001375F50F2583FD814DC51303F00F16
:100C7000630D65020E07130515F83703000433678B
:100C800067002A9481431305140033C3B6002AC0B9
:100C90003D459A826362F510170500001305C544AF
:100CA0008A07AA979C433E9502851304F40F61EBD3
:100CB00093E727008943C1BF01431307F00FB7072C
:100CC0004000F2406244A6075E07A5831315F301B6
:100CD000D98FD2445D8D05618280AE82BA841E8632
:100CE00089476306F60A8D47E308F6FC85471683B5
:100CF000631EF61A01478147E9B7B5E013D57501C0
:100D0000139795001375F50F914701440546258308
:100D1000FD8129FD19EB93E717008543ADB79DE8E9
:100D2000A1471304F00F09460DBF3A8532C83EC6ED
:100D30002EC436C23AC0552402471303B5FF098CAE
:100D4000331767001304A4F881439246A245B247C3
:100D5000424615BFB1471304F00F0D46FDBD268571
:100D60002EC236C09D2C9307B5FF1304A0F8B39490
:100D7000F400098C8147014682469245F9BD93E70C
:100D800037008D4309B78947B682E31EF6F4168310
:100D90001307F00F814735B7C167FD17B3F3F400B0
:100DA000F98FC18041831E85BE85EFF0AFB0AA8266
:100DB000BA851E85EFF00FB0AA83BE852685EFF0B9
:100DC0006FAFAA87BA852685EFF0CFAE13D70201A1
:100DD000BE93BA9363F4F300C1673E95C167FD17F4
:100DE000B3F4F300C204B3F2F200A692939462004B
:100DF00093D30301B334900093D2A201AA93B3E238
:100E0000540093946300B3E454009397440063D771
:100E10000700024493D714008588DD8C1307F4077C
:100E2000635FE00293F7740099C793F7F40091466B
:100E30006383D70091049397440063D80700B707F2
:100E400000F8FD17FD8C130704089307E00F63CB30
:100E5000E70493976400A5831377F70F9DB5854743
:100E6000B386E74011C76D4601478147E34BD6E49F
:100E70001304E40933948400B3D7D400B33480005E
:100E8000C58F13F7770019C713F7F700914663036F
:100E9000D700910713975700634C07009A07A58363
:100EA000014705B51307F00F814721BD0244BDB7C7
:100EB0000547814739B513577501370680009307F9
:100EC000F6FF1377F70F9305E007B3F6A7009357E4
:100ED000F501014563F4E50099C3828082809307A0
:100EE000E0097D55E3EBE7FE93055009B3E7C60043
:100EF00063D7E5001307A7F63395E7008280130553
:100F000060093307E54033D5E7008280511106C4FC
:100F100022C215CD2A84D1209307E0093387A74048
:100F20009307600963C0E704A1469377F70F63D581
:100F3000A60061153314A400260425802604135549
:100F40009400A2401244DE075D8D3101828001448D
:100F5000260413559400A24012448147DE075D8D9C
:100F6000310182809307900963DDE7009306B501A4
:100F70009547B316D400898FB336D0003354F400AC
:100F8000558C954763D6A7009307B5FF3314F4003B
:100F9000B70600FCFD16937774003376D40085C342
:100FA0009377F4009145638CB700110693175600B0
:100FB00063D707009307F009758E3387A740131492
:100FC00066002580260413559400A24012449377AE
:100FD000F70FDE075D8D31018280C167637CF5020A
:100FE0009307F00F1307000263EBA70097070000B9
:100FF00093878713AA9788233305A740828021818E
:101000009707000093874712AA9788236147330503
:10101000A7408280B7070001636DF50061819707E3
:10102000000093876710AA97882321473305A740BC
:1010300082804181970700009387070FAA97882332
:1010400041473305A7408280F807000006080000EA
:10105000100800001A08000026080000333323405F
:101060000000C8426CFAFFFF7EF9FFFF66FAFFFF3F
:1010700086F9FFFF66FAFFFF58F9FFFF66FAFFFFE8
:1010800086F9FFFF7EF9FFFF7EF9FFFF58F9FFFFAA
:1010900086F9FFFF8CF9FFFF8CF9FFFF8CF9FFFF4A
:1010A00058F9FFFF3EF9FFFF3EF9FFFF26FAFFFF69
:1010B00060FBFFFF26FAFFFF18F9FFFF26FAFFFF8C
:1010C00060FBFFFF3EF9FFFF3EF9FFFF18F9FFFF4E
:1010D00060FBFFFF4CF9FFFF4CF9FFFF4CF9FFFFEE
:1010E00018F9FFFFB4FCFFFFF8FBFFFFF8FBFFFF61
:1010F000F6FBFFFFFCFBFFFFFCFBFFFFD4FBFFFF4A
:10110000F6FBFFFFFCFBFFFFD4FBFFFFFCFBFFFF39
:10111000F6FBFFFFA2FCFFFFA2FCFFFFA2FCFFFF0C
:10112000D4FBFFFF000102020303030304040404D1
:101130000404040405050505050505050505050563
:101140000505050506060606060606060606060643
:10115000060606060606060606060606060606062F
:101160000606060607070707070707070707070713
:1011700007070707070707070707070707070707FF
:1011800007070707070707070707070707070707EF
:1011900007070707070707070707070707070707DF
:1011A00007070707080808080808080808080808C3
:1011B00008080808080808080808080808080808AF
:1011C000080808080808080808080808080808089F
:1011D000080808080808080808080808080808088F
:1011E000080808080808080808080808080808087F
:1011F000080808080808080808080808080808086F
:10120000080808080808080808080808080808085E
:10121000080808080808080808080808080808084E
:0412200008080808AA
:10122400006CDC020204060804080C1008101820E4
:1012340010203040204060800102030405060708A6
:0812440001020304050607087E
:00000001FF
